:020000040800F2
:100000001804002045010008FF0500080702000849
:10001000FD0500088D0100084907000800000000E8
:100020000000000000000000000000004D06000875
:100030000502000800000000010600084F06000845
:100040005F0100085F0100085F0100085F01000810
:100050005F0100085F0100085F0100085F01000800
:100060005F0100085F0100085F0100085F010008F0
:100070005F0100085F01000891010008B10100085C
:100080005F0100085F0100085F0100085F010008D0
:100090005F0100085F0100085F0100085F010008C0
:1000A0005F0100085F0100085F0100085F010008B0
:1000B0005F0100085F0100085F0100085F010008A0
:1000C0005F0100085F0100085F0100085F01000890
:1000D0005F010008110700085F0100085F010008C8
:1000E0005F0100085F0100085F0100085F01000870
:1000F0005F0100085F0100085F0100085F01000860
:100100005F0100085F0100085F0100085F0100084F
:100110005F0100085F0100085F0100085F0100083F
:100120005F0100085F0100085F0100085F0100082F
:10013000DFF80CD000F018F8004800474D07000821
:10014000180400200648804706480047FEE7FEE7FF
:10015000FEE7FEE7FEE7FEE7FEE7FEE7FEE7FEE777
:10016000DD06000831010008064C074D06E0E06896
:1001700040F0010394E8070098471034AC42F6D3EE
:10018000FFF7DAFF2008000840080008FEE700003B
:1001900006480168890458BF70474FF40051416018
:1001A000416C21F001014164704700BF0000024032
:1001B0007047000010480A22816962F30F018161D3
:1001C000416862F30F010E4A41600C49C16102624D
:1001D000C2608160016841F002010160016841F084
:1001E00008010160416941F008014161416941F044
:1001F00001014161704700BF4400024004380140E2
:10020000080000207047FEE781B00B490A680243EE
:100210000A60096808400090009801B0704700BF6C
:1002200081B005490A6802430A60096808400090E5
:10023000009801B0704700BF181002402DE9F04F40
:10024000B1F801204FF0010C40F2011E4FF00F0BEE
:100250004FF003094FF0040A4FF0011892FAA2F38D
:10026000B3FA83F332FA03F504BF0020BDE8F08F40
:100270000CFA03F515423AD0072B91BF0EFA03F79B
:10028000A3F1080508FA05F545F080673C0A0D69F9
:10029000C66894FAA4F4B4FA84F426EA172605FA98
:1002A00004F43443C46097FAA7F43F0EB4FA84F41C
:1002B0003E58A5000BFA05F426EA04044E68AE4049
:1002C00026433E504C6844F00804092C0FD109FA2B
:1002D00005F426EA04048E68AE4034430AFA05F6B3
:1002E000C451B443CE6806FA05F52C43C45101331A
:1002F000B8E700004FF47A71B0FBF1F04F490138D4
:1003000048600020886005200860704710B50446EA
:1003100000F078F9CA4920600A4B0A68C2F3031258
:100320009A5C094BD04060600A68C2F302229A5C72
:1003300020FA02F2A2600968C1F3C221595CC840E8
:10034000E06010BD060800081608000801490860B2
:10035000704700BF000000207FB50446C0688004DD
:100360004FD4E0680D4641F20C616E4688436968DF
:10037000D5E90323084310431843E060A8682169C6
:1003800021F44051084320616869616921F440719A
:10039000084360613046FFF7B9FF1B4884420ED026
:1003A0001A4884420BD01A48844208D01948844223
:1003B00005D0E348844224D106F10C0001E006F1A7
:1003C00008000068E8B12968D9B1192289006FF0E6
:1003D00063035043B0FBF1F06421B0FBF1F202FB88
:1003E0000300322303EB0010B0FBF1F000F00F012B
:1003F00000F0F00000EB021080B20844A060002082
:1004000000E0012004B070BD0044004000480040FE
:10041000004C00400050004081B008490A6800923A
:10042000421C08BF0246009803E00868C00302EBC4
:10043000E072002AF9D101B0704700BF10E000E07F
:1004400018B50C48E34C0D4B0022016841F0010146
:100450000160006800F001000090009821680649E2
:100460004FF480400A70186020684A704FF40040D2
:10047000186018BD141002400EE400E000E100E036
:100480002DE9F04385B0154C4FF000084020CDF821
:100490001080A0470420A0470820A047D148104C56
:1004A00020216D464FF0010942F22006022701602B
:1004B000616104F540602946CDF804900096CDE9CD
:1004C0000278FFF7BBFE20462946CDE90069CDE959
:1004D0000278FFF7B3FE05B0BDE8F083090200081B
:1004E000000C01402DE9F0418CB000264FF4804013
:1004F0000496FFF795FE04200427FFF791FE0920DC
:100500006D46394C019003202946CDE90206374853
:1005100000948046FFF792FE04F102102946CDE9CF
:1005200000074046FFF78AFE8648314942690A4083
:100530004261426922F440524261426922F0200243
:100540004261426922F040024261426942F0800207
:100550004261426922F440724261426922F440627F
:1005600042610268114010310160016821F440517C
:100570000160016821F020010160016821F0400163
:100580000160016841F080010160016821F440715F
:100590000160016821F4406101608E4820210068FB
:1005A00014480670144801604FF4E130069605A91E
:1005B00005900C20CDE90766CDE9090608F5405005
:1005C0000B96FFF7C9FE5148416821F49041416004
:1005D000816821F02A018160016841F400510160C5
:1005E0000CB0BDE8F08100BF020002040008014029
:1005F000EFBFFFFF25E400E004E100E0FEE7FEE7D7
:10060000704700000E48006800F00C00082814BF76
:100610000D4800F001B8704709480168C90301D4CA
:10062000084906E00168084AC1F340410131B2FBC4
:10063000F1F10068C0F3834002304843704700BFC7
:100640000410024000093D0000127A007047704714
:100650001F480222016862F302010160016801F093
:1006600007010229FAD11B48016841F48031016079
:1006700001688903FCD541681D2262F31541416080
:10068000016841F08071016001688901FCD5416811
:10069000042221F0F0014160416862F30A21022244
:1006A0004160416821F460514160416862F3010199
:1006B0004160416801F00C010829FAD110B5064CDF
:1006C0002046FFF717FE2046BDE81040FFF73EBE6C
:1006D000002002400010024000A24A0470470000BF
:1006E0000A48816841F040018160816841F08001E1
:1006F0008160016841F004010160016841F0080176
:100700000160016841F01001016070470C38014040
:100710000B480168C90658BF704781B001680A22BA
:10072000009100994068009000980648416862F383
:100730000F014160016841F00101016001B07047A3
:100740000038014044000240FEE7000082B020482B
:100750004FF6FF02016841F001010160016801F0FC
:10076000010100910099416841F080514160406869
:1007700000F0805001900198164801681140164A17
:10078000114301601548016821F0E06101600168D2
:1007900041F000710160FFF75BFFFFF771FEFFF7AB
:1007A0004FFEFFF79FFEFFF705FDFFF799FF0C4C8B
:1007B0000C4E20254FF4FA7065603560FFF72CFE73
:1007C0004FF4FA702560C4F8005CFFF725FEF1E7EE
:1007D000181002400CED00E00003FA05040001408F
:1007E000100C01401418014002E008C8121F08C193
:1007F000002AFAD170477047002001E001C1121FA2
:10080000002AFBD170470000000000000000010238
:1008100003040607080900000000010203040000A9
:10082000400800080000002008000000E807000859
:10083000480800080800002010040000F80700081D
:080840000024F4000000000098
:0400000508000131BD
:00000001FF
